{
  "contractName": "Flashloan",
  "abi": [
    {
      "inputs": [
        {
          "internalType": "address",
          "name": "kyberAddress",
          "type": "address"
        },
        {
          "internalType": "address",
          "name": "uniswapAddress",
          "type": "address"
        },
        {
          "internalType": "address",
          "name": "wethAddress",
          "type": "address"
        },
        {
          "internalType": "address",
          "name": "daiAddress",
          "type": "address"
        },
        {
          "internalType": "address",
          "name": "beneficiaryAddress",
          "type": "address"
        }
      ],
      "stateMutability": "nonpayable",
      "type": "constructor"
    },
    {
      "anonymous": false,
      "inputs": [
        {
          "indexed": false,
          "internalType": "enum Flashloan.Direction",
          "name": "direction",
          "type": "uint8"
        },
        {
          "indexed": false,
          "internalType": "uint256",
          "name": "profit",
          "type": "uint256"
        },
        {
          "indexed": false,
          "internalType": "uint256",
          "name": "date",
          "type": "uint256"
        }
      ],
      "name": "NewArbitrage",
      "type": "event"
    },
    {
      "stateMutability": "payable",
      "type": "receive",
      "payable": true
    },
    {
      "inputs": [
        {
          "internalType": "address",
          "name": "sender",
          "type": "address"
        },
        {
          "components": [
            {
              "internalType": "address",
              "name": "owner",
              "type": "address"
            },
            {
              "internalType": "uint256",
              "name": "number",
              "type": "uint256"
            }
          ],
          "internalType": "struct Account.Info",
          "name": "account",
          "type": "tuple"
        },
        {
          "internalType": "bytes",
          "name": "data",
          "type": "bytes"
        }
      ],
      "name": "callFunction",
      "outputs": [],
      "stateMutability": "nonpayable",
      "type": "function"
    },
    {
      "inputs": [
        {
          "internalType": "address",
          "name": "_solo",
          "type": "address"
        },
        {
          "internalType": "address",
          "name": "_token",
          "type": "address"
        },
        {
          "internalType": "uint256",
          "name": "_amount",
          "type": "uint256"
        },
        {
          "internalType": "enum Flashloan.Direction",
          "name": "_direction",
          "type": "uint8"
        }
      ],
      "name": "initiateFlashloan",
      "outputs": [],
      "stateMutability": "nonpayable",
      "type": "function"
    }
  ],
  "bytecode": "0x60806040523480156200001157600080fd5b50604051620029bb380380620029bb8339818101604052810190620000379190620001f0565b846000806101000a81548173ffffffffffffffffffffffffffffffffffffffff021916908373ffffffffffffffffffffffffffffffffffffffff16021790555083600160006101000a81548173ffffffffffffffffffffffffffffffffffffffff021916908373ffffffffffffffffffffffffffffffffffffffff16021790555082600260006101000a81548173ffffffffffffffffffffffffffffffffffffffff021916908373ffffffffffffffffffffffffffffffffffffffff16021790555081600360006101000a81548173ffffffffffffffffffffffffffffffffffffffff021916908373ffffffffffffffffffffffffffffffffffffffff16021790555080600460006101000a81548173ffffffffffffffffffffffffffffffffffffffff021916908373ffffffffffffffffffffffffffffffffffffffff160217905550505050505062000278565b600080fd5b600073ffffffffffffffffffffffffffffffffffffffff82169050919050565b6000620001b8826200018b565b9050919050565b620001ca81620001ab565b8114620001d657600080fd5b50565b600081519050620001ea81620001bf565b92915050565b600080600080600060a086880312156200020f576200020e62000186565b5b60006200021f88828901620001d9565b95505060206200023288828901620001d9565b94505060406200024588828901620001d9565b93505060606200025888828901620001d9565b92505060806200026b88828901620001d9565b9150509295509295909350565b61273380620002886000396000f3fe60806040526004361061002d5760003560e01c80638b41871314610039578063c01314761461006257610034565b3661003457005b600080fd5b34801561004557600080fd5b50610060600480360381019061005b9190611866565b61008b565b005b34801561006e57600080fd5b50610089600480360381019061008491906118fa565b610e40565b005b6000818060200190518101906100a191906119db565b90506000600360009054906101000a900473ffffffffffffffffffffffffffffffffffffffff1673ffffffffffffffffffffffffffffffffffffffff166370a08231306040518263ffffffff1660e01b81526004016101009190611a17565b602060405180830381865afa15801561011d573d6000803e3d6000fd5b505050506040513d601f19601f820116820180604052508101906101419190611a32565b90506000600181111561015757610156611a5f565b5b8260000151600181111561016e5761016d611a5f565b5b0361067557600360009054906101000a900473ffffffffffffffffffffffffffffffffffffffff1673ffffffffffffffffffffffffffffffffffffffff1663095ea7b360008054906101000a900473ffffffffffffffffffffffffffffffffffffffff16836040518363ffffffff1660e01b81526004016101f0929190611a9d565b6020604051808303816000875af115801561020f573d6000803e3d6000fd5b505050506040513d601f19601f820116820180604052508101906102339190611afe565b5060008060009054906101000a900473ffffffffffffffffffffffffffffffffffffffff1673ffffffffffffffffffffffffffffffffffffffff1663809a9e55600360009054906101000a900473ffffffffffffffffffffffffffffffffffffffff1673eeeeeeeeeeeeeeeeeeeeeeeeeeeeeeeeeeeeeeee856040518463ffffffff1660e01b81526004016102ca93929190611b8a565b6040805180830381865afa1580156102e6573d6000803e3d6000fd5b505050506040513d601f19601f8201168201806040525081019061030a9190611bc1565b50905060008054906101000a900473ffffffffffffffffffffffffffffffffffffffff1673ffffffffffffffffffffffffffffffffffffffff16633bba21dc600360009054906101000a900473ffffffffffffffffffffffffffffffffffffffff1684846040518463ffffffff1660e01b815260040161038c93929190611c01565b6020604051808303816000875af11580156103ab573d6000803e3d6000fd5b505050506040513d601f19601f820116820180604052508101906103cf9190611a32565b506000600267ffffffffffffffff8111156103ed576103ec6116ab565b5b60405190808252806020026020018201604052801561041b5781602001602082028036833780820191505090505b509050600260009054906101000a900473ffffffffffffffffffffffffffffffffffffffff168160008151811061045557610454611c38565b5b602002602001019073ffffffffffffffffffffffffffffffffffffffff16908173ffffffffffffffffffffffffffffffffffffffff1681525050600360009054906101000a900473ffffffffffffffffffffffffffffffffffffffff16816001815181106104c6576104c5611c38565b5b602002602001019073ffffffffffffffffffffffffffffffffffffffff16908173ffffffffffffffffffffffffffffffffffffffff16815250506000600160009054906101000a900473ffffffffffffffffffffffffffffffffffffffff1673ffffffffffffffffffffffffffffffffffffffff1663d06ca61f47846040518363ffffffff1660e01b815260040161055f929190611d25565b600060405180830381865afa15801561057c573d6000803e3d6000fd5b505050506040513d6000823e3d601f19601f820116820180604052508101906105a59190611e1d565b9050600160009054906101000a900473ffffffffffffffffffffffffffffffffffffffff1673ffffffffffffffffffffffffffffffffffffffff16637ff36ab547836001815181106105fa576105f9611c38565b5b60200260200101518530426040518663ffffffff1660e01b81526004016106249493929190611e66565b60006040518083038185885af1158015610642573d6000803e3d6000fd5b50505050506040513d6000823e3d601f19601f8201168201806040525081019061066c9190611e1d565b50505050610ba5565b60018081111561068857610687611a5f565b5b8260000151600181111561069f5761069e611a5f565b5b03610ba457600360009054906101000a900473ffffffffffffffffffffffffffffffffffffffff1673ffffffffffffffffffffffffffffffffffffffff1663095ea7b3600160009054906101000a900473ffffffffffffffffffffffffffffffffffffffff16836040518363ffffffff1660e01b8152600401610723929190611a9d565b6020604051808303816000875af1158015610742573d6000803e3d6000fd5b505050506040513d601f19601f820116820180604052508101906107669190611afe565b506000600267ffffffffffffffff811115610784576107836116ab565b5b6040519080825280602002602001820160405280156107b25781602001602082028036833780820191505090505b509050600360009054906101000a900473ffffffffffffffffffffffffffffffffffffffff16816000815181106107ec576107eb611c38565b5b602002602001019073ffffffffffffffffffffffffffffffffffffffff16908173ffffffffffffffffffffffffffffffffffffffff1681525050600260009054906101000a900473ffffffffffffffffffffffffffffffffffffffff168160018151811061085d5761085c611c38565b5b602002602001019073ffffffffffffffffffffffffffffffffffffffff16908173ffffffffffffffffffffffffffffffffffffffff16815250506000600160009054906101000a900473ffffffffffffffffffffffffffffffffffffffff1673ffffffffffffffffffffffffffffffffffffffff1663d06ca61f84846040518363ffffffff1660e01b81526004016108f6929190611d25565b600060405180830381865afa158015610913573d6000803e3d6000fd5b505050506040513d6000823e3d601f19601f8201168201806040525081019061093c9190611e1d565b9050600160009054906101000a900473ffffffffffffffffffffffffffffffffffffffff1673ffffffffffffffffffffffffffffffffffffffff166318cbafe5848360018151811061099157610990611c38565b5b60200260200101518530426040518663ffffffff1660e01b81526004016109bc959493929190611eb2565b6000604051808303816000875af11580156109db573d6000803e3d6000fd5b505050506040513d6000823e3d601f19601f82011682018060405250810190610a049190611e1d565b5060008060009054906101000a900473ffffffffffffffffffffffffffffffffffffffff1673ffffffffffffffffffffffffffffffffffffffff1663809a9e5573eeeeeeeeeeeeeeeeeeeeeeeeeeeeeeeeeeeeeeee600360009054906101000a900473ffffffffffffffffffffffffffffffffffffffff16476040518463ffffffff1660e01b8152600401610a9b93929190611b8a565b6040805180830381865afa158015610ab7573d6000803e3d6000fd5b505050506040513d601f19601f82011682018060405250810190610adb9190611bc1565b50905060008054906101000a900473ffffffffffffffffffffffffffffffffffffffff1673ffffffffffffffffffffffffffffffffffffffff16637a2a045647600360009054906101000a900473ffffffffffffffffffffffffffffffffffffffff16846040518463ffffffff1660e01b8152600401610b5c929190611f0c565b60206040518083038185885af1158015610b7a573d6000803e3d6000fd5b50505050506040513d601f19601f82011682018060405250810190610b9f9190611a32565b505050505b5b8160200151600360009054906101000a900473ffffffffffffffffffffffffffffffffffffffff1673ffffffffffffffffffffffffffffffffffffffff166370a08231306040518263ffffffff1660e01b8152600401610c059190611a17565b602060405180830381865afa158015610c22573d6000803e3d6000fd5b505050506040513d601f19601f82011682018060405250810190610c469190611a32565b1015610c87576040517f08c379a0000000000000000000000000000000000000000000000000000000008152600401610c7e90611fb8565b60405180910390fd5b60008260200151600360009054906101000a900473ffffffffffffffffffffffffffffffffffffffff1673ffffffffffffffffffffffffffffffffffffffff166370a08231306040518263ffffffff1660e01b8152600401610ce99190611a17565b602060405180830381865afa158015610d06573d6000803e3d6000fd5b505050506040513d601f19601f82011682018060405250810190610d2a9190611a32565b610d349190612007565b9050600360009054906101000a900473ffffffffffffffffffffffffffffffffffffffff1673ffffffffffffffffffffffffffffffffffffffff1663a9059cbb600460009054906101000a900473ffffffffffffffffffffffffffffffffffffffff16836040518363ffffffff1660e01b8152600401610db5929190611a9d565b6020604051808303816000875af1158015610dd4573d6000803e3d6000fd5b505050506040513d601f19601f82011682018060405250810190610df89190611afe565b507fa89b78c8d1240154beaf4b865d2d7cb794ac0f358c618aef3de102cf4a4ee42d83600001518242604051610e3093929190612083565b60405180910390a1505050505050565b60008490506000610e5186866110ef565b90506000610e5e85611288565b90508573ffffffffffffffffffffffffffffffffffffffff1663095ea7b388836040518363ffffffff1660e01b8152600401610e9b929190611a9d565b6020604051808303816000875af1158015610eba573d6000803e3d6000fd5b505050506040513d601f19601f82011682018060405250810190610ede9190611afe565b506000600367ffffffffffffffff811115610efc57610efb6116ab565b5b604051908082528060200260200182016040528015610f3557816020015b610f22611532565b815260200190600190039081610f1a5790505b509050610f42838761129e565b81600081518110610f5657610f55611c38565b5b6020026020010181905250610faf6040518060400160405280876001811115610f8257610f81611a5f565b5b815260200184815250604051602001610f9b9190612107565b60405160208183030381529060405261136c565b81600181518110610fc357610fc2611c38565b5b6020026020010181905250610fd8838361142b565b81600281518110610fec57610feb611c38565b5b60200260200101819052506000600167ffffffffffffffff811115611014576110136116ab565b5b60405190808252806020026020018201604052801561104d57816020015b61103a6115a5565b8152602001906001900390816110325790505b5090506110586114f9565b8160008151811061106c5761106b611c38565b5b60200260200101819052508473ffffffffffffffffffffffffffffffffffffffff1663a67a6a4582846040518363ffffffff1660e01b81526004016110b2929190612539565b600060405180830381600087803b1580156110cc57600080fd5b505af11580156110e0573d6000803e3d6000fd5b50505050505050505050505050565b60008083905060008173ffffffffffffffffffffffffffffffffffffffff1663295c39a56040518163ffffffff1660e01b8152600401602060405180830381865afa158015611142573d6000803e3d6000fd5b505050506040513d601f19601f820116820180604052508101906111669190611a32565b9050600080600090505b82811015611246578373ffffffffffffffffffffffffffffffffffffffff1663062bd3e9826040518263ffffffff1660e01b81526004016111b19190612570565b602060405180830381865afa1580156111ce573d6000803e3d6000fd5b505050506040513d601f19601f820116820180604052508101906111f291906125a0565b91508573ffffffffffffffffffffffffffffffffffffffff168273ffffffffffffffffffffffffffffffffffffffff16036112335780945050505050611282565b808061123e906125cd565b915050611170565b506040517f08c379a000000000000000000000000000000000000000000000000000000000815260040161127990612687565b60405180910390fd5b92915050565b600060028261129791906126a7565b9050919050565b6112a6611532565b604051806101000160405280600160088111156112c6576112c5611a5f565b5b8152602001600081526020016040518060800160405280600015158152602001600060018111156112fa576112f9611a5f565b5b81526020016000600181111561131357611312611a5f565b5b8152602001858152508152602001848152602001600081526020013073ffffffffffffffffffffffffffffffffffffffff1681526020016000815260200160405180602001604052806000815250815250905092915050565b611374611532565b60405180610100016040528060088081111561139357611392611a5f565b5b8152602001600081526020016040518060800160405280600015158152602001600060018111156113c7576113c6611a5f565b5b8152602001600060018111156113e0576113df611a5f565b5b81526020016000815250815260200160008152602001600081526020013073ffffffffffffffffffffffffffffffffffffffff16815260200160008152602001838152509050919050565b611433611532565b6040518061010001604052806000600881111561145357611452611a5f565b5b81526020016000815260200160405180608001604052806001151581526020016000600181111561148757611486611a5f565b5b8152602001600060018111156114a05761149f611a5f565b5b8152602001858152508152602001848152602001600081526020013073ffffffffffffffffffffffffffffffffffffffff1681526020016000815260200160405180602001604052806000815250815250905092915050565b6115016115a5565b60405180604001604052803073ffffffffffffffffffffffffffffffffffffffff1681526020016001815250905090565b6040518061010001604052806000600881111561155257611551611a5f565b5b8152602001600081526020016115666115d5565b81526020016000815260200160008152602001600073ffffffffffffffffffffffffffffffffffffffff16815260200160008152602001606081525090565b6040518060400160405280600073ffffffffffffffffffffffffffffffffffffffff168152602001600081525090565b6040518060800160405280600015158152602001600060018111156115fd576115fc611a5f565b5b81526020016000600181111561161657611615611a5f565b5b8152602001600081525090565b6000604051905090565b600080fd5b600080fd5b600073ffffffffffffffffffffffffffffffffffffffff82169050919050565b600061166282611637565b9050919050565b61167281611657565b811461167d57600080fd5b50565b60008135905061168f81611669565b92915050565b600080fd5b6000601f19601f8301169050919050565b7f4e487b7100000000000000000000000000000000000000000000000000000000600052604160045260246000fd5b6116e38261169a565b810181811067ffffffffffffffff82111715611702576117016116ab565b5b80604052505050565b6000611715611623565b905061172182826116da565b919050565b6000819050919050565b61173981611726565b811461174457600080fd5b50565b60008135905061175681611730565b92915050565b60006040828403121561177257611771611695565b5b61177c604061170b565b9050600061178c84828501611680565b60008301525060206117a084828501611747565b60208301525092915050565b600080fd5b600080fd5b600067ffffffffffffffff8211156117d1576117d06116ab565b5b6117da8261169a565b9050602081019050919050565b82818337600083830152505050565b6000611809611804846117b6565b61170b565b905082815260208101848484011115611825576118246117b1565b5b6118308482856117e7565b509392505050565b600082601f83011261184d5761184c6117ac565b5b813561185d8482602086016117f6565b91505092915050565b60008060006080848603121561187f5761187e61162d565b5b600061188d86828701611680565b935050602061189e8682870161175c565b925050606084013567ffffffffffffffff8111156118bf576118be611632565b5b6118cb86828701611838565b9150509250925092565b600281106118e257600080fd5b50565b6000813590506118f4816118d5565b92915050565b600080600080608085870312156119145761191361162d565b5b600061192287828801611680565b945050602061193387828801611680565b935050604061194487828801611747565b9250506060611955878288016118e5565b91505092959194509250565b600081519050611970816118d5565b92915050565b60008151905061198581611730565b92915050565b6000604082840312156119a1576119a0611695565b5b6119ab604061170b565b905060006119bb84828501611961565b60008301525060206119cf84828501611976565b60208301525092915050565b6000604082840312156119f1576119f061162d565b5b60006119ff8482850161198b565b91505092915050565b611a1181611657565b82525050565b6000602082019050611a2c6000830184611a08565b92915050565b600060208284031215611a4857611a4761162d565b5b6000611a5684828501611976565b91505092915050565b7f4e487b7100000000000000000000000000000000000000000000000000000000600052602160045260246000fd5b611a9781611726565b82525050565b6000604082019050611ab26000830185611a08565b611abf6020830184611a8e565b9392505050565b60008115159050919050565b611adb81611ac6565b8114611ae657600080fd5b50565b600081519050611af881611ad2565b92915050565b600060208284031215611b1457611b1361162d565b5b6000611b2284828501611ae9565b91505092915050565b6000819050919050565b6000611b50611b4b611b4684611637565b611b2b565b611637565b9050919050565b6000611b6282611b35565b9050919050565b6000611b7482611b57565b9050919050565b611b8481611b69565b82525050565b6000606082019050611b9f6000830186611b7b565b611bac6020830185611b7b565b611bb96040830184611a8e565b949350505050565b60008060408385031215611bd857611bd761162d565b5b6000611be685828601611976565b9250506020611bf785828601611976565b9150509250929050565b6000606082019050611c166000830186611b7b565b611c236020830185611a8e565b611c306040830184611a8e565b949350505050565b7f4e487b7100000000000000000000000000000000000000000000000000000000600052603260045260246000fd5b600081519050919050565b600082825260208201905092915050565b6000819050602082019050919050565b611c9c81611657565b82525050565b6000611cae8383611c93565b60208301905092915050565b6000602082019050919050565b6000611cd282611c67565b611cdc8185611c72565b9350611ce783611c83565b8060005b83811015611d18578151611cff8882611ca2565b9750611d0a83611cba565b925050600181019050611ceb565b5085935050505092915050565b6000604082019050611d3a6000830185611a8e565b8181036020830152611d4c8184611cc7565b90509392505050565b600067ffffffffffffffff821115611d7057611d6f6116ab565b5b602082029050602081019050919050565b600080fd5b6000611d99611d9484611d55565b61170b565b90508083825260208201905060208402830185811115611dbc57611dbb611d81565b5b835b81811015611de55780611dd18882611976565b845260208401935050602081019050611dbe565b5050509392505050565b600082601f830112611e0457611e036117ac565b5b8151611e14848260208601611d86565b91505092915050565b600060208284031215611e3357611e3261162d565b5b600082015167ffffffffffffffff811115611e5157611e50611632565b5b611e5d84828501611def565b91505092915050565b6000608082019050611e7b6000830187611a8e565b8181036020830152611e8d8186611cc7565b9050611e9c6040830185611a08565b611ea96060830184611a8e565b95945050505050565b600060a082019050611ec76000830188611a8e565b611ed46020830187611a8e565b8181036040830152611ee68186611cc7565b9050611ef56060830185611a08565b611f026080830184611a8e565b9695505050505050565b6000604082019050611f216000830185611b7b565b611f2e6020830184611a8e565b9392505050565b600082825260208201905092915050565b7f4e6f7420656e6f7567682066756e647320746f2072657061792044796478206c60008201527f6f616e2100000000000000000000000000000000000000000000000000000000602082015250565b6000611fa2602483611f35565b9150611fad82611f46565b604082019050919050565b60006020820190508181036000830152611fd181611f95565b9050919050565b7f4e487b7100000000000000000000000000000000000000000000000000000000600052601160045260246000fd5b600061201282611726565b915061201d83611726565b9250828210156120305761202f611fd8565b5b828203905092915050565b6002811061204c5761204b611a5f565b5b50565b600081905061205d8261203b565b919050565b600061206d8261204f565b9050919050565b61207d81612062565b82525050565b60006060820190506120986000830186612074565b6120a56020830185611a8e565b6120b26040830184611a8e565b949350505050565b6120c381612062565b82525050565b6120d281611726565b82525050565b6040820160008201516120ee60008501826120ba565b50602082015161210160208501826120c9565b50505050565b600060408201905061211c60008301846120d8565b92915050565b600081519050919050565b600082825260208201905092915050565b6000819050602082019050919050565b6040820160008201516121646000850182611c93565b50602082015161217760208501826120c9565b50505050565b6000612189838361214e565b60408301905092915050565b6000602082019050919050565b60006121ad82612122565b6121b7818561212d565b93506121c28361213e565b8060005b838110156121f35781516121da888261217d565b97506121e583612195565b9250506001810190506121c6565b5085935050505092915050565b600081519050919050565b600082825260208201905092915050565b6000819050602082019050919050565b6009811061223d5761223c611a5f565b5b50565b600081905061224e8261222c565b919050565b600061225e82612240565b9050919050565b61226e81612253565b82525050565b61227d81611ac6565b82525050565b6002811061229457612293611a5f565b5b50565b60008190506122a582612283565b919050565b60006122b582612297565b9050919050565b6122c5816122aa565b82525050565b600281106122dc576122db611a5f565b5b50565b60008190506122ed826122cb565b919050565b60006122fd826122df565b9050919050565b61230d816122f2565b82525050565b6080820160008201516123296000850182612274565b50602082015161233c60208501826122bc565b50604082015161234f6040850182612304565b50606082015161236260608501826120c9565b50505050565b600081519050919050565b600082825260208201905092915050565b60005b838110156123a2578082015181840152602081019050612387565b838111156123b1576000848401525b50505050565b60006123c282612368565b6123cc8185612373565b93506123dc818560208601612384565b6123e58161169a565b840191505092915050565b6000610160830160008301516124096000860182612265565b50602083015161241c60208601826120c9565b50604083015161242f6040860182612313565b50606083015161244260c08601826120c9565b50608083015161245560e08601826120c9565b5060a0830151612469610100860182611c93565b5060c083015161247d6101208601826120c9565b5060e083015184820361014086015261249682826123b7565b9150508091505092915050565b60006124af83836123f0565b905092915050565b6000602082019050919050565b60006124cf82612200565b6124d9818561220b565b9350836020820285016124eb8561221c565b8060005b85811015612527578484038952815161250885826124a3565b9450612513836124b7565b925060208a019950506001810190506124ef565b50829750879550505050505092915050565b6000604082019050818103600083015261255381856121a2565b9050818103602083015261256781846124c4565b90509392505050565b60006020820190506125856000830184611a8e565b92915050565b60008151905061259a81611669565b92915050565b6000602082840312156125b6576125b561162d565b5b60006125c48482850161258b565b91505092915050565b60006125d882611726565b91507fffffffffffffffffffffffffffffffffffffffffffffffffffffffffffffffff820361260a57612609611fd8565b5b600182019050919050565b7f4e6f206d61726b6574496420666f756e6420666f722070726f7669646564207460008201527f6f6b656e00000000000000000000000000000000000000000000000000000000602082015250565b6000612671602483611f35565b915061267c82612615565b604082019050919050565b600060208201905081810360008301526126a081612664565b9050919050565b60006126b282611726565b91506126bd83611726565b9250827fffffffffffffffffffffffffffffffffffffffffffffffffffffffffffffffff038211156126f2576126f1611fd8565b5b82820190509291505056fea26469706673582212209849d27b555451326af6fb0d8534f31f0eb1c0d9c16d7cc98262a42835c0ff8064736f6c634300080f0033",
  "immutableReferences": {},
  "source": "pragma solidity ^0.8.0;\npragma experimental ABIEncoderV2;\n\nimport \"@studydefi/money-legos/dydx/contracts/DydxFlashloanBase.sol\";\nimport \"@studydefi/money-legos/dydx/contracts/ICallee.sol\";\nimport { KyberNetworkProxy as IKyberNetworkProxy } from '@studydefi/money-legos/kyber/contracts/KyberNetworkProxy.sol';\n\nimport \"@openzeppelin/contracts/token/ERC20/IERC20.sol\";\n\nimport \"./IWeth.sol\";\nimport \"./IUniswapV2Router02.sol\";\n\n\n\ncontract Flashloan is ICallee, DydxFlashloanBase { //DydxFlashloaner\n    enum Direction { KyberToUniswap, UniswapToKyber }\n    struct ArbInfo { // before was MyCustomData\n        Direction direction; //before was address token\n        uint repayAmount;\n    }\n\n    event NewArbitrage (\n        Direction direction,\n        uint profit,\n        uint date\n        );\n\n    IKyberNetworkProxy kyber;\n    IUniswapV2Router02 uniswap;\n    IWeth weth;\n    IERC20 dai;\n    address beneficiary;\n    address constant KYBER_ETH_ADDRESS = 0xEeeeeEeeeEeEeeEeEeEeeEEEeeeeEeeeeeeeEEeE; // constant pour intragir avec eth sur Kyber\n\n    constructor (\n        address kyberAddress,\n        address uniswapAddress,\n        address wethAddress,\n        address daiAddress,\n        address beneficiaryAddress)\n        public {\n            kyber = IKyberNetworkProxy (kyberAddress);\n            uniswap = IUniswapV2Router02(uniswapAddress);\n            weth = IWeth(wethAddress);\n            dai = IERC20(daiAddress);\n            beneficiary = beneficiaryAddress;\n    }\n\n    // This is the function that will be called postLoan\n    // i.e. Encode the logic to handle your flashloaned funds here\n    function callFunction ( \n        address sender,\n        Account.Info memory account,\n        bytes memory data // this will be our ArbInfo struct. it's more flexible to pass bytes than a struct. Cause the money-legos creators don't know about what we'll pass here.\n    ) public override { //added override\n        ArbInfo memory arbInfo = abi.decode(data, (ArbInfo)); // was called mcd instead of arbInfo\n        uint256 balanceDai = dai.balanceOf(address(this));// we check to ensure we have received enough tokens from dydx\n        if (arbInfo.direction == Direction.KyberToUniswap)  {\n            //Buy ETH on Kyber \n              dai.approve(address(kyber), balanceDai);  //approve the dai to be spent by Kyber\n              (uint expectedRate,) = kyber.getExpectedRate( //this takes 3 arguments but we only want to expected rate\n                    dai, // pointer to the token that we provide in input\n                    IERC20(KYBER_ETH_ADDRESS), // pointer to the output token which is ETH. And this is how Kyber referencs ETH\n                    balanceDai //amount of dai we want to trade\n              );\n              kyber.swapTokenToEther(dai, balanceDai, expectedRate); // after we can finally trade so we use the method swapTokenToEth\n\n            // sell ETH on Uniswap\n                // sur Uniswap c'est plus complexe car on peur faire une srie d'oprations genre de token A  B puis B  C etc... => on spcifie un path plutt que juste le token innput et output\n                address [] memory path = new address [](2); // length 2 car ici on a que 2 tokens\n                path[0] = address(weth);\n                path[1] = address(dai);\n                uint [] memory minOuts = uniswap.getAmountsOut(address(this).balance, path); // It's a unit array because if we have a longer paths, we'll have amount from path[0] to path[1], then path[1] to path[2] etc..\n                uniswap.swapExactETHForTokens { value : address(this).balance}( // that's the uniswap function to do the trade. We use .value to send this value (=msg.value) to the function. //Before .value(address(this).balance)\n                    minOuts[1], // that's the minimum price that we want in dai\n                    path,\n                    address(this), // c'est cette addresse qui va recevoir les dai\n                    block.timestamp // avant now\n                ); \n        }\n        else if (arbInfo.direction == Direction.UniswapToKyber){ // il a mit else lui\n            //Buy ETH on Uniswap\n              dai.approve(address(uniswap), balanceDai);  //approve the dai to be spent by Uniswap\n              address [] memory path = new address [](2); // length 2 car ici on a que 2 tokens\n              path[0] = address(dai);\n              path[1] = address(weth);\n              uint [] memory minOuts = uniswap.getAmountsOut(balanceDai, path); \n              uniswap.swapExactTokensForETH( // that's the uniswap function to do the trade.\n                    balanceDai,\n                    minOuts[1], // that's the minimum price that we want in dai\n                    path,\n                    address(this), // c'est cette addresse qui va recevoir les weth\n                    block.timestamp // avant now\n                ); \n            // sell ETH on Kyber\n              (uint expectedRate,) = kyber.getExpectedRate(\n                    IERC20(KYBER_ETH_ADDRESS), // pointer to the input token\n                    dai, // pointer to the output token which is dai\n                    address(this).balance //amount of ETH we want to trade\n              );\n              kyber.swapEtherToToken { value : address(this).balance }( // Before : .value(address(this).balance)\n                dai, \n                expectedRate\n                );\n        }\n        require( // to ensure that after the whole call we have enough funds to repay\n            dai.balanceOf(address(this)) >= arbInfo.repayAmount,\n            \"Not enough funds to repay Dydx loan!\"\n        );\n\n        uint profit = dai.balanceOf(address(this)) - arbInfo.repayAmount;\n        dai.transfer(beneficiary, profit);\n        emit NewArbitrage(arbInfo.direction, profit, block.timestamp); // avant now\n        // uint256 balOfLoanedToken = IERC20(mcd.token).balanceOf(address(this));\n\n        // //Note that you can ignore the line below\n        // //if your dydx account (this contract in this case)\n        // //has deposted at least 2 Wei of assets into the account\n        // // to balance out the collaterization ratio\n        // require(\n        //     balOfLoanedToken >= mcd.repayAmount,\n        //     \"Not enough funds to repay dydx loan!\"\n        // );\n\n        // //TODO : encode your logic here\n        // // E.g arbitrage, liquidate accounts, etc.\n        // revert(\"Hello, you haven't encoded your logic\");\n    }\n\n    function initiateFlashloan(\n      address _solo,  //address of dydx\n      address _token, //address of token to borrow\n      uint256 _amount,\n      Direction _direction) \n        external \n    {\n        ISoloMargin solo = ISoloMargin(_solo);\n\n        // Get marketId from token address\n        uint256 marketId = _getMarketIdFromTokenAddress(_solo, _token);\n\n        // Calculate repay amount (_amount + (2 wei))\n        // Approve transfer from\n        uint256 repayAmount = _getRepaymentAmountInternal(_amount);\n        IERC20(_token).approve(_solo, repayAmount);\n\n        // 1. Withdraw $\n        // 2. Call callFunction(...)\n        // 3. Deposit back $\n        Actions.ActionArgs[] memory operations = new Actions.ActionArgs[](3);\n\n        operations[0] = _getWithdrawAction(marketId, _amount); // when we borrow the token from dydx\n        operations[1] = _getCallAction( // that's when we call to any arbitrary sc execution -> our arbitrage logic\n            // Encode MyCustomData for callFunction\n            abi.encode(ArbInfo({direction: _direction, repayAmount: repayAmount}))\n        );\n        operations[2] = _getDepositAction(marketId, repayAmount); // when we pay back the flashloan to dydx\n\n        Account.Info[] memory accountInfos = new Account.Info[](1);\n        accountInfos[0] = _getAccountInfo();\n\n        solo.operate(accountInfos, operations);\n    }\n\n    receive() external payable {} // when we send ETH to a contract without calling a function, \n                                  //it means we'll call the fallback function (the receive function in the latest version) \n                                  //and if this function doesn't exist the ETH transfer will fail.\n \n                \n    \n}",
  "sourcePath": "/Users/sebastienpozzo/OneDrive/Crypto/Projects/Arbitrage/profitable-flashloans/contracts/Flashloan.sol",
  "compiler": {
    "name": "solc",
    "version": "0.8.15+commit.e14f2714.Emscripten.clang"
  },
  "schemaVersion": "3.4.8",
  "updatedAt": "2022-11-24T13:33:21.684Z",
  "networkType": "ethereum",
  "devdoc": {
    "kind": "dev",
    "methods": {},
    "version": 1
  },
  "userdoc": {
    "kind": "user",
    "methods": {},
    "version": 1
  }
}